:020000040800F2
:10000000B0090020C1010008890500088505000825
:100010008705000831030008610D0008000000009A
:10002000000000000000000000000000ED080008D3
:100030003D04000800000000A1060008C5090008F2
:10004000DB010008DB010008DB010008DB01000820
:10005000DB010008DB010008DB010008DB01000810
:10006000DB010008DB010008DB010008DB01000800
:10007000DB010008DB010008DB010008DB010008F0
:10008000DB010008DB010008DB010008DB010008E0
:10009000DB010008DB010008DB010008DB010008D0
:1000A000DB010008DB010008DB010008DB010008C0
:1000B000DB010008DB010008DB010008DB010008B0
:1000C000DB010008DB010008DB010008DB010008A0
:1000D000DB010008DB010008DB0100088D0A0008D5
:1000E000DB010008DB010008DB010008DB01000880
:1000F000DB010008DB010008DB010008DB01000870
:10010000DB010008DB010008DB010008DB0100085F
:10011000250A0008DB010008DB010008DB010008FC
:10012000DB010008DB010008DB010008DB0100083F
:10013000DB010008DB010008DB010008DB0100082F
:10014000DB010008DB010008DB010008DB0100081F
:10015000DB010008DB010008DB010008450B00089B
:10016000DB010008DB010008DB010008DB010008FF
:10017000DB010008DB010008DB010008DB010008EF
:10018000DB010008DB010008DB010008DB010008DF
:10019000DB010008DB010008DB010008DB010008CF
:1001A000DB010008DB010008DB010008DFF80CD0F0
:1001B00000F076F800480047850E0008B0090020DE
:1001C0000648804706480047FEE7FEE7FEE7FEE7F1
:1001D000FEE7FEE7FEE7FEE7FEE7FEE7C9090008E7
:1001E000AD01000840EA01039B0703D009E008C9FC
:1001F000121F08C0042AFAD203E011F8013B00F8EC
:10020000013B521EF9D27047421E12F8013F002BEB
:10021000FBD111F8013B02F8013B002BF9D17047EB
:1002200010B5044604E00B7800F8013B03B1491C0B
:10023000521EF8D2204610BD421C10F8011B0029A6
:10024000FBD1801A704710B5044600E0401C0378CB
:10025000002BFBD100E0401C521E04D311F8013BDF
:100260000370002BF7D100210170204610BD03461A
:1002700011F8012B00F8012B002AF9D1184670471C
:1002800030B505460020034600E05B1C934205D2D2
:10029000EC5CC85C201A01D1002CF6D130BD000006
:1002A000064C074D06E0E06840F0010394E80700C3
:1002B00098471034AC42F6D3FFF77CFF980E000845
:1002C000B80E000810B5044600F034F81549164879
:1002D000FFF7CDFF14492246C8391348FFF7B3FF93
:1002E0001148FFF7A9FF82B201210F4800F064FD19
:1002F0000C490D480839FFF787FF0A490A48C91E0B
:10030000FFF782FF07490848891FFFF77DFF06486E
:10031000FFF792FF0246BDE810400349034800F092
:100320002CBD00001E000020E40400200014014049
:10033000FEE70000F0B585B014220FA16846FFF774
:1003400051FF00246E46114F114D0DE0385D06EB54
:100350002011097805F8141000F00F0005EB440196
:10036000305C4870641CE4B20848FFF765FFA042A7
:10037000ECD805B0F0BD00003031323334353637BB
:1003800038394142434445460000000054030020F0
:100390001C04002070B586B00121042000F082F911
:1003A0000121C80400F08CF900248DF816400120CA
:1003B0008DF8170002258DF815508DF81450800225
:1003C00004901C4E04A9304600F08EF88DF81450AD
:1003D000A902049104A9304600F086F808220B21F6
:1003E000304600F0BFF808220A21304600F0BAF883
:1003F0004FF4E1300090ADF80440ADF80640ADF8A0
:100400000840ADF80C400C20ADF80A000A4C6946D3
:10041000204600F03FFC00F0F1F8012240F22551A7
:10042000204600F01CFC0121204600F0E5FB06B050
:1004300070BD000000080240004C00407047000002
:1004400070B586B00121084600F02CF9012110207A
:1004500000F044F900248DF8164001208DF81700B3
:1004600002258DF815508DF81450400204901C4E52
:1004700004A9304600F038F88DF814506902049150
:1004800004A9304600F030F807220A21304600F077
:1004900069F807220921304600F064F84FF4E13092
:1004A0000090ADF80440ADF80640ADF80840ADF856
:1004B0000C400C20ADF80A000A4C6946204600F0BA
:1004C000E9FB00F062F8012240F22551204600F0DD
:1004D000C6FB0121204600F08FFB06B070BD000076
:1004E00000000240001001402DE9F04100220127E8
:1004F0004FF0030C07FA02F50B682B40AB422CD1EE
:10050000066853000CFA03F4A64306600E79D0F88F
:1005100000809E4046EA080606600E79012E01D052
:10052000022E12D18668A64386604E79D0F80880E4
:100530009E4046EA080686604668AE4346604568C7
:100540008E799640B6B235434560C568A543C5600F
:10055000CC799C40C3681C43C460521C102AC9D388
:10056000BDE8F08110B54B07DB0E9A40C90800EBDF
:100570008100016A0F249C40A1430162016A11437A
:10058000016210BDFEE7FEE7704708B54FF4A060BA
:1005900000F07CF825208DF8000001208DF8010086
:1005A0008DF802008DF80300684600F03BF808BDA6
:1005B00008B54FF4A06000F069F827208DF800001E
:1005C00001208DF801008DF802008DF803006846C7
:1005D00000F028F808BD08B54FF4A06000F056F808
:1005E00047208DF8000001208DF801008DF80200F1
:1005F0008DF80300684600F015F808BD08B54FF403
:10060000A06000F043F834208DF8000001208DF840
:1006100001008DF802008DF80300684600F002F832
:1006200008BD000030B50F23C27801250178002AEB
:100630001FD0154A126802F4E062C2F5E062C2F30C
:100640000722C2F10404D3404278A24084781C40BF
:100650001443220101F1E02181F80024007800F028
:100660001F018D404009800000F1E020C0F80051DA
:1006700030BD01F01F0085404809800000F1E020F6
:10068000C0F8805130BD00000CED00E00249084385
:1006900002490860704700000000FA050CED00E018
:1006A00070470000054A002903D01168014311601A
:1006B0007047116881431160704700003038024074
:1006C000054A002903D01168014311607047116881
:1006D000814311607047000040380240054A0029FC
:1006E00003D01168014311607047116881431160A4
:1006F000704700004438024070B5244B196801F07F
:100700000C01234C00291ED0224E04291DD008299B
:100710001DD00460196801F0F00109091E4A545CFB
:100720000168E14041601C6804F4E054A40A145DCF
:1007300021FA04F484601B6803F460435B0BD25C11
:10074000D140C16070BD0460E4E70660E2E70F4A93
:10075000121F1168C1F38055116801F03F0135B1D6
:10076000B6FBF1F11468C4F38814614305E0B4FBEF
:10077000F1F11468C4F3881461431268C2F30142B2
:10078000521C5200B1FBF2F10160C3E7083802408D
:100790000024F40040787D010000002070B586B090
:1007A00001210420FFF77EFF01212020FFF796FFA3
:1007B00000248DF8164001208DF8170002258DF8D1
:1007C00015508DF81450402004901C4E04A930465A
:1007D000FFF78AFE8DF814508021049104A9304659
:1007E000FFF782FE082207213046FFF7BBFE0822F2
:1007F00006213046FFF7B6FE4FF4E1300090ADF829
:100800000440ADF80640ADF80840ADF80C400C20AF
:10081000ADF80A000A4C6946204600F03BFAFFF7A3
:10082000DAFE012240F22551204600F018FA01219B
:10083000204600F0E1F906B070BD0000000802405B
:100840000014014070B586B001210220FFF72AFF95
:1008500001218804FFF734FF00248DF816400120A1
:100860008DF8170002258DF815508DF81450800270
:1008700004901C4E04A93046FFF736FE8DF8145044
:10088000A902049104A93046FFF72EFE07220B218E
:100890003046FFF767FE07220A213046FFF762FE67
:1008A0004FF416500090ADF80440ADF80640ADF896
:1008B0000840ADF80C400C20ADF80A000A4C69461F
:1008C000204600F0E7F9FFF773FE012240F22551C0
:1008D000204600F0C4F90121204600F08DF906B051
:1008E00070BD000000040240004800407047000056
:1008F0001CB50021019100912E4A106840F480300F
:1009000010604FF4A043106800F40030009001988C
:10091000401C0190009810B901989842F3D11068DA
:10092000800302D50120009000E00091009801288A
:100930003FD120484030016841F0805101601E499C
:10094000086840F4404008601A48083003680360B3
:10095000036843F400430360036843F4A053036057
:10096000041F164B2360136843F0807313601368F1
:100970009B01FCD50A6842F480320A604A68D203BF
:10098000FCD50A6842F400320A604A689203FCD53A
:100990000B4A40F205711160016821F0030101600A
:1009A000016841F0020101600168C1F3810102297F
:1009B000FAD11CBD0038024000700040195A4007AF
:1009C000003C02407047000010B51248016841F435
:1009D000700101601048016841F0010101600E4A98
:1009E00000210832116002680C4B1A400260031D9E
:1009F0000B4A1A60026822F48022026006480C301A
:100A00000160FFF775FF03494FF00060803908600F
:100A100010BD000088ED00E000380240FFFFF6FE48
:100A20001030002410B516480088800627D51449D8
:100A3000091D0888C0B20880124A134CEC2801D165
:100A4000217950541178EC2903D121794B1C237161
:100A50005054EB2813D1012060710A49227901F129
:100A6000C800FFF7DDFB20794006000EFFF72AFCE7
:100A700004495839002081F85800E070207110BDF9
:100A8000004C00408C02002010000020F0B589B01E
:100A9000254F40F22551384600F0C1F818B13846CC
:100AA00000F056F9C4B2214D242C00D12C702878C6
:100AB0001F4E242803D130782C54401C30700A2C4F
:100AC00030D1287824282DD132780121174800F020
:100AD000A1F920B3062217A11448FFF7D1FBF0B902
:100AE00095F82F0031281AD1122101AA5318685CF9
:100AF00003F8120C491CC9B22E29F7D31C2201A9F4
:100B00000E4800F03AF91C2201A90D48FFF788FBB6
:100B10003820FFF7D7FB0021384600F06DF80020A1
:100B20002870307009B0F0BD00480040340000204B
:100B30001000002024474E4747410000004C004071
:100B40005403002070B524480088800642D522480E
:100B5000001D0088C0B2214C242800D120702178CB
:100B60001F4D242903D1A9786054491CA9700A2873
:100B700030D1207824282DD1AA780121174800F0FF
:100B800049F918B3062217A11448FFF779FB174E4D
:100B900088B91622114BC83304E0981800F8161CC7
:100BA000521CD2B2A15C2A29F7D10C49163AC8319D
:100BB000304600F0E2F806220DA10848FFF760FB7E
:100BC00020B9AA780549304600F0D7F800202070F7
:100BD0006870A87070BD000000140140FC00002087
:100BE000100000202442445458520000004C0040A1
:100BF000244244464B490000002904D0818941F435
:100C0000005181817047818921F4005181817047B1
:100C10000246002012880A4200D00120704770B5B9
:100C2000002440F66A12C1F3421301F01F050126A9
:100C300006FA05F2012B0CD0022B0DD0838A13404B
:100C4000090A8E40008830400BB100B101242046D3
:100C500070BD83891340F3E7038A1340F0E710B5B2
:100C600040F66A13C1F3421301F01F040121A140B1
:100C7000012B07D0022B07D014303AB102680A4387
:100C8000026010BD0C30F8E71030F6E702688A43C6
:100C9000026010BD7FB504460D46208A20F4405105
:100CA000E88808432082A08941F20C618843A98822
:100CB0002A8911436A8902431143A181A08A20F441
:100CC0004071A8890843A0826846FFF715FD1E48B9
:100CD000844202D01D48844201D1039800E002986A
:100CE000A189090408D500EBC00101EB00102968B7
:100CF0004900B0FBF1F007E000EBC00101EB001090
:100D000029688900B0FBF1F06422B0FBF2F109011F
:100D10000B096FF018056B4300EB8300A3891D04DA
:100D20004FF0320307D503EBC000B0FBF2F000F048
:100D30000700084306E003EB0010B0FBF2F000F000
:100D40000F00084320817FBD0010014000140140C6
:100D50008088C0F308007047C1F3080181807047A4
:100D6000FEE710B504462046FFF7F6FF8021204637
:100D7000FFF74EFF0028F9D010BD2DE9F0410746DE
:100D80000D46164600243846295DFFF7EAFF641C2D
:100D9000B442F8D3BDE8F08102E008C8121F08C1D0
:100DA000002AFAD170477047002001E001C1121FEC
:100DB000002AFBD1704700002DE9F04186B00746BC
:100DC0000D469046002414220CA101A8FFF70AFA50
:100DD000002304E0E8183E5C74405B1CDBB2434532
:100DE000F8D301A800EB14110A7809490A7004F03D
:100DF0000F02805C487006B0BDE8F08130313233BC
:100E00003435363738394142434445460000000006
:100E10001B0000202DE9F04186B0064688461746A3
:100E20000024142212A101A8FFF7DCF90023BD1F42
:100E300005E008EB0300305C44405B1CDBB2AB42D6
:100E4000F7DB01A9F01901EB141310F8042C1B783F
:100E50009A420AD104F00F0210F8030C895C884210
:100E600003D1012006B0BDE8F0810020FAE70000C0
:100E700030313233343536373839414243444546D0
:100E800000000000FFF7DCFAFFF7DCFCFFF786FC50
:100E9000FFF780FAFEE70000B80E0008000000200F
:100EA00034000000980D0008EC0E0008340000200B
:100EB0007C090000A80D00080000000001020304E6
:100EC00001020304060708090000000000002A00D0
:100ED0000D0A000000002443435458412C303331A4
:0C0EE000343134372C312C322C413400DA
:04000005080001AD41
:00000001FF
